{
  "_format": "hh-sol-artifact-1",
  "contractName": "Chai",
  "sourceName": "contracts/Chai.sol",
  "abi": [
    {
      "inputs": [],
      "stateMutability": "nonpayable",
      "type": "constructor"
    },
    {
      "inputs": [
        {
          "internalType": "string",
          "name": "name",
          "type": "string"
        },
        {
          "internalType": "string",
          "name": "message",
          "type": "string"
        }
      ],
      "name": "buyChai",
      "outputs": [],
      "stateMutability": "payable",
      "type": "function"
    },
    {
      "inputs": [],
      "name": "getMemos",
      "outputs": [
        {
          "components": [
            {
              "internalType": "string",
              "name": "name",
              "type": "string"
            },
            {
              "internalType": "string",
              "name": "message",
              "type": "string"
            },
            {
              "internalType": "uint256",
              "name": "timestamp",
              "type": "uint256"
            },
            {
              "internalType": "address",
              "name": "from",
              "type": "address"
            }
          ],
          "internalType": "struct Chai.Memo[]",
          "name": "",
          "type": "tuple[]"
        }
      ],
      "stateMutability": "view",
      "type": "function"
    }
  ],
  "bytecode": "0x608060405234801561001057600080fd5b5033600160006101000a81548173ffffffffffffffffffffffffffffffffffffffff021916908373ffffffffffffffffffffffffffffffffffffffff160217905550610c95806100616000396000f3fe6080604052600436106100295760003560e01c80636a13d8591461002e578063865c51721461004a575b600080fd5b610048600480360381019061004391906105d3565b610075565b005b34801561005657600080fd5b5061005f610206565b60405161006c9190610850565b60405180910390f35b600034116100b8576040517f08c379a00000000000000000000000000000000000000000000000000000000081526004016100af906108cf565b60405180910390fd5b600160009054906101000a900473ffffffffffffffffffffffffffffffffffffffff1673ffffffffffffffffffffffffffffffffffffffff166108fc349081150290604051600060405180830381858888f19350505050158015610120573d6000803e3d6000fd5b50600060405180608001604052808481526020018381526020014281526020013373ffffffffffffffffffffffffffffffffffffffff16815250908060018154018082558091505060019003906000526020600020906004020160009091909190915060008201518160000190816101989190610afb565b5060208201518160010190816101ae9190610afb565b506040820151816002015560608201518160030160006101000a81548173ffffffffffffffffffffffffffffffffffffffff021916908373ffffffffffffffffffffffffffffffffffffffff16021790555050505050565b60603373ffffffffffffffffffffffffffffffffffffffff16600160009054906101000a900473ffffffffffffffffffffffffffffffffffffffff1673ffffffffffffffffffffffffffffffffffffffff1614610298576040517f08c379a000000000000000000000000000000000000000000000000000000000815260040161028f90610c3f565b60405180910390fd5b6000805480602002602001604051908101604052809291908181526020016000905b8282101561047057838290600052602060002090600402016040518060800160405290816000820180546102ed9061091e565b80601f01602080910402602001604051908101604052809291908181526020018280546103199061091e565b80156103665780601f1061033b57610100808354040283529160200191610366565b820191906000526020600020905b81548152906001019060200180831161034957829003601f168201915b5050505050815260200160018201805461037f9061091e565b80601f01602080910402602001604051908101604052809291908181526020018280546103ab9061091e565b80156103f85780601f106103cd576101008083540402835291602001916103f8565b820191906000526020600020905b8154815290600101906020018083116103db57829003601f168201915b50505050508152602001600282015481526020016003820160009054906101000a900473ffffffffffffffffffffffffffffffffffffffff1673ffffffffffffffffffffffffffffffffffffffff1673ffffffffffffffffffffffffffffffffffffffff1681525050815260200190600101906102ba565b50505050905090565b6000604051905090565b600080fd5b600080fd5b600080fd5b600080fd5b6000601f19601f8301169050919050565b7f4e487b7100000000000000000000000000000000000000000000000000000000600052604160045260246000fd5b6104e082610497565b810181811067ffffffffffffffff821117156104ff576104fe6104a8565b5b80604052505050565b6000610512610479565b905061051e82826104d7565b919050565b600067ffffffffffffffff82111561053e5761053d6104a8565b5b61054782610497565b9050602081019050919050565b82818337600083830152505050565b600061057661057184610523565b610508565b90508281526020810184848401111561059257610591610492565b5b61059d848285610554565b509392505050565b600082601f8301126105ba576105b961048d565b5b81356105ca848260208601610563565b91505092915050565b600080604083850312156105ea576105e9610483565b5b600083013567ffffffffffffffff81111561060857610607610488565b5b610614858286016105a5565b925050602083013567ffffffffffffffff81111561063557610634610488565b5b610641858286016105a5565b9150509250929050565b600081519050919050565b600082825260208201905092915050565b6000819050602082019050919050565b600081519050919050565b600082825260208201905092915050565b60005b838110156106b1578082015181840152602081019050610696565b60008484015250505050565b60006106c882610677565b6106d28185610682565b93506106e2818560208601610693565b6106eb81610497565b840191505092915050565b6000819050919050565b610709816106f6565b82525050565b600073ffffffffffffffffffffffffffffffffffffffff82169050919050565b600061073a8261070f565b9050919050565b61074a8161072f565b82525050565b6000608083016000830151848203600086015261076d82826106bd565b9150506020830151848203602086015261078782826106bd565b915050604083015161079c6040860182610700565b5060608301516107af6060860182610741565b508091505092915050565b60006107c68383610750565b905092915050565b6000602082019050919050565b60006107e68261064b565b6107f08185610656565b93508360208202850161080285610667565b8060005b8581101561083e578484038952815161081f85826107ba565b945061082a836107ce565b925060208a01995050600181019050610806565b50829750879550505050505092915050565b6000602082019050818103600083015261086a81846107db565b905092915050565b600082825260208201905092915050565b7f506c65617365207061792067726561746572207468616e203020657468657200600082015250565b60006108b9601f83610872565b91506108c482610883565b602082019050919050565b600060208201905081810360008301526108e8816108ac565b9050919050565b7f4e487b7100000000000000000000000000000000000000000000000000000000600052602260045260246000fd5b6000600282049050600182168061093657607f821691505b602082108103610949576109486108ef565b5b50919050565b60008190508160005260206000209050919050565b60006020601f8301049050919050565b600082821b905092915050565b6000600883026109b17fffffffffffffffffffffffffffffffffffffffffffffffffffffffffffffffff82610974565b6109bb8683610974565b95508019841693508086168417925050509392505050565b6000819050919050565b60006109f86109f36109ee846106f6565b6109d3565b6106f6565b9050919050565b6000819050919050565b610a12836109dd565b610a26610a1e826109ff565b848454610981565b825550505050565b600090565b610a3b610a2e565b610a46818484610a09565b505050565b5b81811015610a6a57610a5f600082610a33565b600181019050610a4c565b5050565b601f821115610aaf57610a808161094f565b610a8984610964565b81016020851015610a98578190505b610aac610aa485610964565b830182610a4b565b50505b505050565b600082821c905092915050565b6000610ad260001984600802610ab4565b1980831691505092915050565b6000610aeb8383610ac1565b9150826002028217905092915050565b610b0482610677565b67ffffffffffffffff811115610b1d57610b1c6104a8565b5b610b27825461091e565b610b32828285610a6e565b600060209050601f831160018114610b655760008415610b53578287015190505b610b5d8582610adf565b865550610bc5565b601f198416610b738661094f565b60005b82811015610b9b57848901518255600182019150602085019450602081019050610b76565b86831015610bb85784890151610bb4601f891682610ac1565b8355505b6001600288020188555050505b505050505050565b7f4f6e6c7920746865206f776e65722063616e20706572666f726d20746869732060008201527f6f7065726174696f6e0000000000000000000000000000000000000000000000602082015250565b6000610c29602983610872565b9150610c3482610bcd565b604082019050919050565b60006020820190508181036000830152610c5881610c1c565b905091905056fea264697066735822122017ffed2a58653d47707ef2cf8bc5b0534c25442fcee031d111ab3d555cd261b964736f6c63430008120033",
  "linkReferences": {},
  "deployedLinkReferences": {}
}